:020000041000EA
:1000000000B5324B212058609868022188439860DF
:10001000D860186158612E4B002199600221596106
:100020000121F02299502B49196001219960352056
:1000300000F044F80222904214D00621196600F024
:1000400034F8196E01211966002018661A6600F04E
:100050002CF8196E196E196E052000F02FF8012189
:100060000842F9D1002199601B49196000215960AB
:100070001A491B48016001219960EB211966A021F2
:10008000196600F012F800219960164914480160C1
:100090000121996001BC002800D000471248134993
:1000A000086003C880F30888084703B5996A0420EC
:1000B0000142FBD001200142F8D103BD02B5186610
:1000C0001866FFF7F2FF186E186E02BD00000240BE
:1000D000000000180000070000035F00212200005C
:1000E000F4000018222000A00001001008ED00E03C
:1000F00000000000000000000000000074B24E7A12
:1001000000200420F7010010C3010010C5010010F9
:10011000C1010010C1010010C1010010C101001097
:10012000C1010010C1010010C1010010C701001081
:10013000C1010010C1010010C9010010CB01001065
:10014000CD010010CD010010CD010010CD01001037
:10015000CD010010CD010010CD010010CD01001027
:10016000CD010010CD010010CD010010CD01001017
:10017000CD010010CD010010CD010010CD01001007
:10018000CD010010CD010010CD010010CD010010F7
:10019000CD010010CD010010CD010010CD010010E7
:1001A000CD010010CD010010CD010010CD010010D7
:1001B000CD010010CD010010CD010010CD010010C7
:1001C00000BE00BE00BE00BE00BE00BEEFF3058054
:1001D000103800BEF2EB887120F4051044F40510CD
:1001E0003402001090A31AE700201F49086006C8D7
:1001F00081F3088810471D48006800282FD10DA4FE
:100200000ECC002902D000F012F8F9E71849194A7B
:10021000002000E001C19142FCD1174988471749ED
:1002200088471749884700BEFDE701C901C29A42C5
:10023000FBD3704744F40510C00000205023002079
:10024000D41606100000042000000420D416061066
:10025000001004200010042000000000704709482E
:1002600003F0DEFF0047000008ED00E0000000D0D2
:1002700050230020AC420020E12E001009030010A2
:10028000A32E00105756000006005250ABB3605327
:10029000E8C2041006005250861C0302F8C2041083
:1002A000060052505422A29D08C30410050052506B
:1002B000DE65F468D4160610F8B5C046064807494E
:1002C000091A8B10C90FC91810B5491003D0044B77
:1002D000002B00D0984710BD502300205023002051
:1002E00000000000054B10B5002B03D00449054861
:1002F00000E000BFFFF7E2FF10BDC04600000000B5
:100300006C3F002018B5041010B594B004F0B6FE90
:100310000C490D4C200024F02FFE24F0AFFC684661
:1003200000F016F8684600F04FF80849200024F065
:1003300023FE24F0A3FC684600F09FF80A2001F099
:10034000E8FFF8E718B50410E03700202CB50410DA
:10035000F0B583B004000500443501950D230093EA
:10036000073B0322022100F006F927003C37142145
:10037000380000F0CCFB260040361521300000F09C
:10038000C6FB082307220921280000F0FBFC0B49CB
:100390000B4D280024F0F0FD24F070FC380000F034
:1003A000CBFB300000F0C8FB0649280024F0E4FD38
:1003B00024F064FC200003B0F0BDC04644B5041036
:1003C000E03700206CB5041010B5443000F0DEFCBE
:1003D00010BD000070B5040005004435280000F091
:1003E0000DFD002805D1280000F01CFD00280AD1D1
:1003F00070BD0B490B4824F0BFFD24F03FFC2000EA
:1004000000F00EF9EFE70849064824F0B5FD24F0A6
:1004100035FC200000F0DEFA002000F0E9FCE7E700
:100420009CB50410E0370020B8B5041010B50400E6
:1004300000F040FB012811D02000403000F07CFB90
:10044000200000F035FB01280DD0042810D0002832
:100450000DD120003C3000F068FB08E02000403067
:1004600000F072FBECE720003C3000F065FB10BDB3
:1004700020003C3000F068FBF9E710B50400FFF7FE
:10048000A9FF2000FFF7D2FF10BD10B5002905D04D
:10049000FA229200002303F055FF03E0FA218900BD
:1004A00003F012FF10BD000070B50D0000F0DAFB84
:1004B0000400002D15D0C820400000F05BFD642032
:1004C00001F027FF00F0CEFB041BE317E4185C40AB
:1004D000012C08DCE00F01230022A3425041C0B2EE
:1004E00070BD1048E9E71049104824F045FD002D83
:1004F00013D00F4924F040FD0E4924F03DFD2100AA
:1005000024F00AFE24F0BAFB002D08D0054800F0C4
:1005100031FD642001F0FDFEDCE70749EAE7C82071
:100520004000F4E770FEFFFFE8B50410E03700205C
:10053000DCB5041098B70410D4B5041010B5002B26
:1005400002DB0260436010BD024B034A03483F21B7
:1005500002F0AAFCF0B504100CB6041044B6041066
:1005600010B5040001F066FF02000B002000FFF749
:10057000E5FF200010BDF0B5C64600B582B004000E
:10058000884616001F00012202604260002383603B
:10059000C26003614361050018351A321C2128002E
:1005A00000F01AFB20002830089B00933B0032002B
:1005B000414600F068FC099BA363280000F028FB7B
:1005C000200002B080BCB846F0BD000010B50400A9
:1005D0000B68042B06D89B000B4AD3589F460B4947
:1005E00024F0CAFC200010BD094924F0C5FCF9E73D
:1005F000084924F0C1FCF5E7074924F0BDFCF1E708
:10060000064924F0B9FCEDE7F8DC041088B60410C4
:1006100090B6041098B60410A0B60410A8B6041042
:10062000F0B5CE46474680B585B005000C220021C6
:1006300001A804F0F5FA00952F00183739000120C1
:1006400000F0BCFC01216846FFF72EFF04000021EA
:100650006846FFF729FF002C00D1B9E000280ED032
:100660006849694824F088FC24F008FBABE064206A
:10067000404200F07FFC6548002101F03DFE00F0A3
:10068000FFFA0028F3D0FA20400001F042FE604952
:100690005D4824F071FC24F0F1FA00F0E9FA390029
:1006A000002000F08BFC060001905A49564C2000B7
:1006B00024F062FC804600F0D5FA0100404624F0A8
:1006C0002BFD24F0DBFA01216846FFF7EDFE8146A1
:1006D00000216846FFF7E8FE80464F49200024F0DD
:1006E0004BFC494624F01CFD24F0C8FA4B4920007D
:1006F00024F042FC414624F013FD24F0BFFA3900F7
:10070000002000F05BFC36180196FA20400001F052
:1007100000FE00F0ADFA3900012000F04FFC8046E9
:1007200002903F49200024F027FC070000F09AFACD
:100730000100380024F0F0FC24F0A0FA394800F061
:1007400019FCB927BF004346FF1A0397364920001A
:1007500024F012FC310024F0DFFC24F08FFA33493E
:10076000200024F009FC414624F0D6FC24F086FA4F
:100770002F49200024F000FC390024F0CDFC24F0A7
:100780007DFA2C49200024F0F7FB060000F06AFAFD
:100790000100300024F0C0FC24F070FA642001F065
:1007A000B8FD00F065FA01232B606B600023EB605D
:1007B0006F612B612049200024F0DEFB390024F01A
:1007C000ABFC24F05BFA05B0C0BCB946B046F0BD46
:1007D000002807D161E7642000F0CCFB0B48002122
:1007E00001F08AFD00F04CFA0028F4D0FA20400015
:1007F00001F08FFD1149044824F0BEFB24F03EFABD
:100800004BE7C046B0B60410E037002052030000AA
:10081000CCB6041014B7041038B7041050B7041045
:1008200068B70410D4FEFFFF8CB704109CB7041007
:10083000ACB70410C0B70410E0B70410F0B6041051
:1008400010B500F0AFFB10BDF0B583B00400C36875
:10085000002B10D10368002B14D000F009FA00F02F
:1008600001FA06006846FFF77BFE00980199FFF742
:100870000CFE070014E02349234824F07DFB24F0FC
:10088000FDF934E02149204824F076FB24F0F6F904
:100890002DE02F000600A06B00F0C4FA002828D13C
:1008A000226963699A4220DB3C20404200F062FBEF
:1008B0006846FFF755FE00980199FFF7E6FD050031
:1008C00000F0D0F923693C3B2361831BDA179B18A6
:1008D0005340012BDDDCED1B96239B009D42DAD3B8
:1008E000FFF7AEFF0123A360E3600023236003B0A2
:1008F000F0BD04232360FFF7A3FF002000F078FA87
:10090000F5E7C04608B80410E03700202CB8041002
:10091000F0B583B00500C368002B10D10368012B2C
:1009200014D000F0A5F900F09DF906006846FFF725
:1009300017FE00980199FFF7A8FD070014E022496F
:10094000224824F019FB24F099F932E020491F488D
:1009500024F012FB24F092F92BE027000600A86B8C
:1009600000F060FA002826D12B69002B1FDC3C2008
:1009700000F000FB6846FFF7F3FD00980199FFF7D0
:1009800084FD040000F06EF92B693C332B61831B5E
:10099000DA179B185340012BDFDCE41B96239B00E6
:1009A0009C42DCD3FFF74CFF0123AB60EB600123DB
:1009B0002B6003B0F0BD04232B60FFF741FF002044
:1009C00000F016FAF5E7C04644B80410E0370020FE
:1009D00068B8041010B50400C368012B1FD00020B4
:1009E00000F006FA2B492C4824F0C6FA2100FFF744
:1009F000EDFD24F043F92368042B10D89B00274A0F
:100A0000D3589F462649244824F0B6FA24F036F9F4
:100A100003232360002363602000FFF779FF10BDEC
:100A200020491D4824F0A8FA24F028F90423236063
:100A3000FFF706FFF3E71C49174824F09DFA24F05E
:100A40001DF902232360013B63602000FFF7FCFED9
:100A5000E5E71449104824F08FFA24F00FF9042335
:100A60002360FFF7EDFEDAE710490B4824F084FA23
:100A700024F004F96368002B05D1023323602000C1
:100A8000FFF7E2FECBE7032323602000FFF740FFE0
:100A9000C5E7C04680B80410E03700200CDD041024
:100AA00090B80410A0B80410A8B80410B8B8041086
:100AB000006870478068704710B5002905D0FA2299
:100AC0009200002303F03EFC03E0FA21890003F0CA
:100AD000FBFB10BD10B5002B02DB0260436010BDB4
:100AE000024B034A03483F2102F0DEF9F0B504103F
:100AF0000CB6041044B6041010B5040001F09AFCC2
:100B000002000B002000FFF7E5FF200010BD10B52C
:100B100004000800216000F0AFFB2268012393402D
:100B2000D02212065362200010BD026801239340B8
:100B3000D022120653617047026801239340D022ED
:100B4000120693617047000010B582B00400684639
:100B5000FFF7D2FF00980199FFF7AEFF03000E4A9E
:100B60001268821AFA2149008A420FD32068D022E3
:100B700012065268C240F439FF390C008440114219
:100B800006D1D02212065461034A136002B010BD90
:100B9000D02212069461F7E7B43A002010B5002B7A
:100BA00002DB0260436010BD024B034A03483F2151
:100BB00002F07AF9F0B504100CB6041044B6041033
:100BC00010B5040001F036FC02000B002000FFF716
:100BD000E5FF200010BD000030B583B004000160C7
:100BE000426000238360C360074B1860074D68466E
:100BF000FFF7E6FF009A019B2A606B606846FFF7EB
:100C0000DFFF200003B030BDB827002050230020B4
:100C100010B50400006800F02FFB606800F02CFBAA
:100C20002268012319009140D02212069162616866
:100C30008B40936220680022012100F04DFA606829
:100C40000022012100F048FA2068054B01220C2106
:100C500000F0B6FA606801220C2100F0A1FA10BD84
:100C6000610D0010014B1B6898687047B827002081
:100C7000024B1B6800229A607047C046B8270020CC
:100C800000B583B06846FFF79BFF009A019B0949B6
:100C900008684968121A8B410120002B03DD0020EF
:100CA000C0B203B000BD002BFAD1034B9A42F7D972
:100CB000F5E7C04650230020973A0000F0B583B016
:100CC00020490B78DBB220480370204C2378DBB23C
:100CD0001F4A13701F4B1E683268D0252D066B68A3
:100CE000D340012213405F427B41DBB20B70766838
:100CF0006B68F3401A4053425A41D2B222700A78CC
:100D0000D2B20378DBB29A4206D12278D2B2104B2B
:100D10001B78DBB29A4213D00F4C6846FFF750FFA6
:100D2000009A019B226063600C4B01221A70054BF4
:100D30001B78002B04D0074B1A689368013393602B
:100D400003B0F0BDA5420020A8420020A64200202A
:100D5000A9420020B827002050230020A0420020F4
:100D600010B50400064B1B68002B01D0FFF7A6FF4F
:100D7000082C00D010BD012000F03AF8FAE7C04678
:100D8000B8270020016042608360704710B50400FE
:100D9000006800F071FA606800F06EFAA06800F078
:100DA0006BFA2268012319009140D0221206916249
:100DB0006168180088409062A1688B409362206847
:100DC0000022012100F088F960680022012100F072
:100DD00083F9A0680022012100F07EF9A068034B8E
:100DE0000122082100F0ECF910BDC046610D001091
:100DF000014B18707047C046A14200200268D02302
:100E00001B065B68D340DB0708D44268D0231B066F
:100E10005B68D340DB0703D4012000E0002070476B
:100E20000020FCE7014B18787047C046A142002023
:100E300010B5002905D0FA229200002303F082FAAF
:100E400003E0FA21890003F03FFA10BD10B5002B32
:100E500002DB0260436010BD024B034A03483F219E
:100E600002F022F8F0B504100CB6041044B60410D9
:100E700010B5040001F0DEFA02000B002000FFF7BD
:100E8000E5FF200010BD10B504000800216062607D
:100E9000A360029BE36000F0EFF9606800F0ECF9FA
:100EA000A06800F0E9F9E06800F0E6F922680123A3
:100EB00019009140D02212065162616818008840E2
:100EC0005062A168180088405062E1688B4053620C
:100ED000200010BD00280AD0244A137801335BB2E9
:100EE0001370072B0ADD130000221A7006E01F4A58
:100EF0001378013B5BB21370002B1EDB1B4B1B787E
:100F00005BB21B4AD35C1A071BD5D0221206042100
:100F100051615A071AD5D0221206082151619A0749
:100F200019D5D022120640215161DB0718D5D023F4
:100F30001B06802292015A617047130007221A7023
:100F4000DCE7D022120604219161E2E7D0221206EA
:100F500008219161E3E7D022120640219161E4E784
:100F6000D0231B06802292019A61E5E7A24200206D
:100F700020DD041070B50400C543ED0F002802DB2E
:100F80000600002409E0002607E02800FFF7A2FF82
:100F90000348002101F0B0F90134B442F5D170BD2D
:100FA00052030000D0231B0604229A6104329A6186
:100FB00038329A61802292019A617047F0B5CE462C
:100FC000474680B583B006003149324823F0D4FF4C
:100FD0003C2124F0A1F823F051FEFFF749FEFFF772
:100FE00041FE80466846FFF743FF00980199FFF7EE
:100FF0001FFF8146002713E03C20404213E03C37AE
:101000004346C51AEB17ED185D40012D1BDC4B461E
:10101000E41A96239B009C4218D2282001F079F90B
:10102000002EE9D03C20FFF7A5FF6846FFF720FF20
:1010300000980199FFF7FCFE0400FFF713FE002E55
:10104000DDD13C3FDCE7A1468046E6E71249114C82
:10105000200023F091FF290024F05EF80F4923F0CF
:101060008BFF23F00BFE0E49200023F085FF962115
:10107000890024F051F80B4923F07EFF23F0FEFD98
:10108000FFF790FF380003B0C0BCB946B046F0BDD2
:10109000DCB80410E0370020F8B8041000B90410E0
:1010A00008B9041030B9041010B58300084A9446FA
:1010B00063441A6840246240803414408022520104
:1010C00013431C60C000034B9C466044416010BD4C
:1010D00004C001400040014080000B4B9C4660442E
:1010E00000290DD00823002A0CD0042213430268E3
:1010F00053400C221A4080235B0103431A6070475F
:101100000023F0E70022F1E704C0014070B50400BD
:10111000D0231B061D680D4BAA00D358002B0AD004
:10112000002803D0094BAD00EC5070BD08490D20DC
:1011300000F0D4FAF6E70028F7D0044BAD00E850F1
:10114000034900220D2000F0C1F9EEE7003E002027
:10115000E1110010072303409B00C00899403C3078
:101160008000014BC150704700400140F8B50700B6
:101170000C0016001D00FFF7EDFFFB089B00ED18AB
:101180000720384080008440002E04D080239B013B
:101190002B431C60F8BDC0239B012B431C60F9E767
:1011A00010B5D0231B061B68002B03D0024BFFF7A2
:1011B000DDFF10BD014BFAE7304101400041014025
:1011C00070B514001D00FFF7EBFF2800FFF79EFF2E
:1011D000002C00D170BD01210D2000F03DF9F9E790
:1011E000F0B5D6464F464646C0B5D0231B061F680D
:1011F0001D4BBA00D3589846002F03D01B4B99467D
:10120000002623E01A4B9946FAE724090135002C01
:101210001BD033000833AB4217D90F231A002240EA
:1012200092462342F1D0134BBA00D2580123AB406F
:101230001342EAD151462800FFF78CFF4346002BAA
:10124000E3D051462800C047DFE708361D2E06D8F8
:10125000F30808339B004A469C583500D7E7E0BCAA
:10126000BA46B146A846F0BD003E002030410140DC
:1012700000410140983F002010B501238340D02257
:101280001206936293610521FFF70EFF10BD000067
:10129000034B1B6802201840431E9841C0B27047A0
:1012A00000C00640EFF3108072B6034B1B68002BA2
:1012B000FBD0BFF35F8F70472C0100D0BFF35F8F6F
:1012C000024B00221A6080F3108870472C0100D076
:1012D000F8B506000C001500FFF7E4FFE308F71867
:1012E000F15C07222240012393400B4205D1DBB27F
:1012F0000B433B70FFF7E2FFF8BD2100280001F02F
:101300006BFE0000002307E0054A9A189200BFF325
:101310005F8F0021116001331F2BF5D97047C04644
:1013200040000034054A1078431CDBB21370172BC1
:1013300002D9130010221A707047C046F011002025
:10134000074B9B68103080001950BFF35F8FBFF3CD
:101350005F8F044B0021196082F310887047C046EC
:1013600000ED00E0240100D010B50388DA0A1C2A41
:1013700005D15B055B1502335B00C01810BD034B44
:10138000034A0448B12101F08FFDC04634B904106E
:101390007CDD04104CB9041010B5091A0B1F0A4A61
:1013A00088180A4A904208D8C90706D45B105B0522
:1013B0005B0D0748184380B210BD064B064A07482C
:1013C000A32101F071FDC046FC070000FE0F0000E4
:1013D00000E0FFFF88B9041070DD04104CB9041060
:1013E00010B5091A04394A08090B08D14905490DF5
:1013F000064B0B430380064B1343438010BD054B44
:10140000054A0648AB2101F04FFDC04600F0FFFF42
:1014100000F8FFFFB8B9041044DD04104CB9041003
:1014200001238340034A10681840431E9841C0B20C
:101430007047C04600E100E0002904D0034B18606B
:10144000034B18607047034B1860FBE780E200E035
:1014500000E100E080E100E010B5012383401800C6
:10146000FFF7EAFF10BD0000024B9B6810308000C0
:10147000C058704700ED00E070B504000D00EFF3B8
:10148000108672B60C4B1B68002BFBD0BFF35F8F2E
:101490002000FFF7E9FF094B984201D0A84205D18F
:1014A000320029002000FFF74BFF70BD044B054AB6
:1014B0000548862101F0F8FC240100D0CD01001080
:1014C000C8B90410A4DD04104CB90410F0B5DE4610
:1014D00057464E464546E0B589B081460191150014
:1014E000EFF3108A72B66D4B1B68002BFBD0BFF375
:1014F0005F8F6B4B00269E57002E41DB7400A419B2
:10150000A400684824180622A256654B1A70664B40
:101510009A684B4610339B00D35898461F00181A00
:101520002F2839D9614B984530D105AF604B3B80AE
:10153000604973009B46981980005A4B9846404476
:101540000230FFF729FF78805B4BBB80FF23BB7124
:10155000FD71019B079333005B449B00434407CF1D
:1015600007C301231C43A046524641464846FFF7A5
:10157000E7FE09B0F0BCBB46B246A946A046F0BDA6
:101580004E4B4F4A4F48D72101F08EFC4E4B4C4AF0
:101590004C48DE2101F088FC01380C2102F094FE59
:1015A000002912D101239F43BB463B000027DA7973
:1015B000AA4211D90621595600290CDB4A005218BB
:1015C000920038491F008B18F1E7404B3C4A3D48D8
:1015D000EA2101F069FC1F00002F2ED005AB3C4A28
:1015E0001A80813A5A800623FB560293002B17DAA1
:1015F000384805AB9B469880029A9A71DD71019A32
:101600000792381D2100FFF7C7FEB880BE71254B39
:101610007200921992009B185A4613CA13C3A3E78B
:10162000381DFFF7A1FE01007000801980001D4BDE
:10163000C0180430FFF7B0FEDBE705AF1C4B3B8062
:101640001C49730002939B199B00164A90461A008E
:1016500042440392901CFFF79FFE7880039A101D6E
:101660005946FFF799FEB8801B4B5A464146521A1D
:10167000524153431B0DBB71FD71019A0792029BAE
:101680009B199B00434407CF07C3114B5A46138055
:10169000813B538001231C43A04665E7240100D011
:1016A000A7420020F411002000ED00E0CD01001061
:1016B00000A1FFFF2412002001BDFFFF00BA0410AB
:1016C0008CDD04104CB9041028BA041050BA041070
:1016D0000148000001BD0000AAAA0000F0B5CE46F6
:1016E000474680B583B006000D00EFF3108872B650
:1016F0004F4B1B68002BFBD0BFF35F8F4D4B9A689D
:1017000034001034A300D7584B4B9F4207D0AF4250
:1017100000D18BE00197494BFB1A2F2B09D9424688
:1017200039003000FFF70CFE03B0C0BCB946B0462C
:10173000F0BD3000FFF774FE814600213000FFF756
:101740008BFEBFF35F8FEFF30581002901D08C4240
:1017500011D10123019C9C430020A368AB4212D00D
:101760000622A256002A0DDB53009B189B00334A29
:101770002000D418F1E7324B324A36213248FF318B
:1017800001F092FB2000AB4249D106256557002DA0
:101790002BDB2A4B6A00521992009B189A68A260B0
:1017A000DA79E2719B795BB2A371002B0FDA2748DB
:1017B000A080224B6A00521992009B18244A11788B
:1017C0009971157049463000FFF746FEA7E768009B
:1017D00040198000194BC0180430FFF7C5FD010007
:1017E000231D1800FFF7D8FDE2E7002912D10028D9
:1017F0000ED0FF238371174B838015490B78A3719B
:101800000E4A154BA41A644163431B0D0B70D9E7B4
:10181000094FF2E71149201DFFF7E2FDD2E7104B17
:10182000084A6A210848FF3101F03EFB024F76E783
:10183000240100D000ED00E0CD010010F4110020E3
:10184000C4BA04105CDD04104CB9041001BD0000E2
:10185000A742002001BDFFFFAAAA00002E1200200F
:10186000F8BA041070B5012202432E4BD31A2F2B65
:1018700028D8EFF30583002B2BD0EFF3108C72B632
:10188000294909680029FBD0BFF35F8F254C274900
:1018900005002D1B6D416943090D4CB2244989682F
:1018A0009B00C95891421BD00021032932D81D4BFF
:1018B0004A00521892009B189B795BB2A3421FD03A
:1018C0000131F2E71B4B1C4AC7211C48490001F0BB
:1018D000EBFA1B4B184A92211848FF3101F0E4FA49
:1018E000134A92681749D150174B1A7882711C70AD
:1018F000BFF35F8F0C4B00221A608CF3108870BD11
:10190000084B4A005518AD005D19FF26AE710F4A0D
:10191000AA80E9E70E4B084AD1210848490001F0A6
:10192000C3FAC046F4110020240100D0AAAA000086
:1019300000ED00E000BB041028DD04104CB90410D9
:1019400028BB0410CD010010A742002001BDFFFFFD
:1019500034BB04100022044B02E0044902C30132EC
:10196000072AFAD97047C04600E400E080808080F2
:10197000024B9C466144890001607047400000347E
:1019800010B50400FFF7CEFC01002000FFF7F0FFC8
:10199000FF232371BFF35F8F10BD10B50400FFF765
:1019A000C1FC01002000FFF7E3FFFF2323710023A8
:1019B0006371BFF35F8F10BD084B5B6A994209D812
:1019C000064A926A824207D2994201D0012002E07F
:1019D000002000E0002070470120FCE700400540A7
:1019E00010B500290AD003681B7B8B4206D38068A0
:1019F000054B9C4661440901401810BD034B044A45
:101A000004483C2101F050FAFFFFFF0FC8BB04104F
:101A1000B4DE0410ECBB0410F8B504001700FFF7A7
:101A2000DFFF0668456839002000FFF7D9FF02682C
:101A300043680120AB4201D802D00020C0B2F8BDFB
:101A4000B242FBD8F9E7000010B5002B02DB0260C0
:101A5000436010BD024B034A03483F2101F024FAC2
:101A6000F0B5041080DE041044B6041010B582B046
:101A700004000498059912184B41002B09DB6846B5
:101A8000FFF7E2FF009A019B22606360200002B032
:101A900010BD01225242014BF1E7C046FFFFFF7F1C
:101AA00010B5002908D0037B8B4205D300684B009A
:101AB0005B18033BC01810BD024B034A0348682162
:101AC00001F0F2F924BC04105CDE041040BC0410E8
:101AD00010B5437B8B4201D1012010BDFFF7E0FF21
:101AE0008378002B01D10020F7E70120F5E770B5DE
:101AF0000400857B002D01D1280070BD2900FFF76F
:101B0000CFFF4378A373002B00D1E37300238370CE
:101B100043700370F0E70000F8B506000C001500F4
:101B2000FFF7BEFF0700002C0DD0002D11D0AC42F6
:101B300015D029003000FFF7B3FF84703B78002BED
:101B400013D13D70F8BD0A4B0A4A0B486F2101F0D2
:101B5000ABF90A4B074A0848702101F0A5F9084B78
:101B6000044A0548712101F09FF943703D70E9E78F
:101B70008CBC041038DE041040BC041098BC041067
:101B8000A4BC041070B506000D001400002914D088
:101B9000002A14D0436880689847002806D02200A5
:101BA00029003000FFF7B8FF280007E02A002100D5
:101BB0003000FFF7B1FF200000E0100070BD08000A
:101BC000FCE7000070B504000D1E0CD0FFF768FFA5
:101BD0000023837043700370617B2A002000FFF7AD
:101BE000D1FF607370BD034B034A0448A52101F087
:101BF0005BF9C046BCBC04104CDE041040BC0410B1
:101C000070B504000D1E0FD0FFF762FF00280BD146
:101C1000E17B00290ED1A37B002B03D1E37B002BBA
:101C20000DD1A573E57370BD084B094A0948F6212B
:101C300001F03AF92000FFF733FF4570EBE7064B60
:101C4000034A0448FB2101F02FF9C046C0BC041030
:101C500028DE041040BC0410E4BC041010B50029B8
:101C600007D003681B7B8B4203D3C068013940183F
:101C700010BD034B034A0448412101F015F9C04649
:101C8000C8BB041014DE0410ECBB041070B50500D2
:101C90000C00080000F0C8FC0949200000F008FC16
:101CA000FFF740FB074B9C466044800068602C7542
:101CB000D0231B061B786B75034BA400E55070BD49
:101CC000D91D001040000034843F00200A4B1A68E0
:101CD000EFF3108172B61368002BFCD0BFF35F8F57
:101CE000054B1B68BFF35F8F00221A6081F31088D9
:101CF00040BF0020002170478442002010B582B010
:101D0000040000F097FB02000B006846FFF79CFE02
:101D1000009A019B22606360200002B010BD70B584
:101D200084B0040016001D0002A8FFF7E7FF029A26
:101D3000039B009601952000FFF798FE200004B059
:101D400070BD0000F0B583B0070001921D000AAB22
:101D50001C780BAB1E78002C0BD000682100FFF71D
:101D6000B7FE002809D0194B194A1A48672101F01B
:101D70009BF80068FFF7BBFE0400002C02D1200096
:101D800003B0F0BD21003800FFF72AFE019B03607D
:101D90004560089B8360099BC36038682100FFF79A
:101DA00011FFA042EBD1387D019A2B0000F0C8FB57
:101DB000051E01D0002E04D00C9B002BDFD01D701F
:101DC000DDE73868210000F075FDF5E7F8BC041088
:101DD00068DE0410ECBB0410F0B5DE4657464E46F4
:101DE0004546E0B58FB00B900021794B8200D45866
:101DF000894683E029002000FFF7F2FD8046026853
:101E00004368921BBB41002B09DD43461A685B689F
:101E10000B9800F095FB0023984600268AE0002BE3
:101E200001D1002AF1D10021584600F039FD070008
:101E3000A84215D143461A685B6808920993434645
:101E40009E68DB689846002E10D029002000FFF71E
:101E500005FF037899461B021F432761002069E0B4
:101E60005C4B5D4A5D488E2101F01EF85C4B5A4A7E
:101E70005A48922101F018F82369002B00D177E02D
:101E8000BB4219D106980799002342428B41009228
:101E90000193089A099B0CA8FFF7E8FD0C9A0D9B8B
:101EA0000021049101310391029541460191009670
:101EB0002000FFF747FF16E04A4B474A4748A12159
:101EC00000F0F2FF069A079B002B01D1002A52D1A5
:101ED00020682900FFF794FE29002000FFF7BEFECE
:101EE000037801330370002323616268BFF35F8FBF
:101EF00013608AF310880120002861D00CA8FFF736
:101F0000FDFE0C9E0D9F002200230892099362683B
:101F1000EFF3108A72B61368002BFCD0BFF35F8F0B
:101F200023689B465D7B002D00D063E70023984625
:101F3000002600206368BFF35F8F00221A608AF3D7
:101F40001088002ED8D04B461F022F434146380040
:101F5000B047069007916268EFF3108A72B6136873
:101F6000002BFCD0BFF35F8F079B002B00DA83E7C9
:101F7000079B002BA6DD2369002BA9D0BB4219D1FA
:101F80000CA8FFF7BBFE0C9A0D9B069807990090D2
:101F900001910CA8FFF76AFD0C9A0D9B002104919A
:101FA0000131039102954146019100962000FFF70F
:101FB000C9FE98E70B4B084A0848A42100F074FFBB
:101FC0000FB0F0BCBB46B246A946A046F0BDC04625
:101FD000843F002020BD041098DE0410ECBB0410E8
:101FE00038BD041044BD041010B50C4B5B68002BC9
:101FF00004D00B480A21FFF7BBFC10BD074C094A6F
:1020000020682300102100F0B6FB032000F006FA40
:1020100003212000FFF73AFEEBE7C0463C12002008
:1020200084420020191A001010B5064B5B68002B83
:1020300001D0044810BD044B044A05485E2100F05D
:1020400033FFC0463C12002080BD0410FCDD0410AC
:10205000ECBB0410F0B5DE4657464E464546E0B5AB
:102060008DB0060090461F00169B9A46179B994616
:1020700018AB1B780793272302AA944663440022D7
:102080001A7021E001003000FFF7E8FD00783CE025
:102090000698002B5CD0079B002B59D04946D047AF
:1020A00004000D0003000B4359D0002940DB08A8B1
:1020B000FFF724FE089A099B0094019508A8FFF7F2
:1020C000D5FC089B9846099F7268EFF3108B72B697
:1020D000136859424B41D9B20691002BF8D1BFF396
:1020E0005F8F273302AA944663440493002303932B
:1020F00002934B4601935346009342463B00300007
:10210000FFF720FE0400051EBCD17368BFF35F8F8C
:10211000002119608BF31088002D17D0272302AA05
:10212000944663441B78002BB2D100022043B0E7F1
:1021300000236242AB410092019342463B0008A853
:10214000FFF794FC089B9846099FBDE70120404299
:102150000DB0F0BCBB46B246A946A046F0BD0698FD
:10216000F6E7F0B5C64600B584B00500884616000F
:102170001F000AAB1C78FFF757FF029401970096E7
:102180002A004346FFF766FF04B080BCB846F0BDA6
:10219000F0B5C64600B505000C1E42D04268EFF30C
:1021A000108772B61368002BFCD0BFF35F8FE6B2C6
:1021B0002B68984631001800FFF78AFC00282AD0C7
:1021C0002B69A34213D0240AE4B231002800FFF7A0
:1021D00045FD0378A34211D000206B68BFF35F8FE9
:1021E00000221A6087F3108880BCB846F0BD0E4B01
:1021F0000E4A2C210E48FF3100F056FE31004046B9
:1022000000F058FB0028E8D10A4B084A99210848F9
:10221000490000F049FE2B69A342DED100232B6167
:10222000DBE70020E0E7C046A4BD0410E4DD0410B5
:10223000ECBB0410C8BD041010B50400FFF7F4FE99
:102240002100FFF7A5FF10BD30B587B004000D00D9
:10225000EFF30583002B20D106225242D317121927
:102260006B418B4202D803D1824201D90022002364
:1022700004A8FFF7E9FB02A8FFF740FD02980399C5
:10228000049A059B121A8B41002B0BDC08D020000E
:10229000290000F0DBF807B030BD144800F09CFEC8
:1022A000002AF4D0124A0498059900230093FFF7FE
:1022B00058FF002813DAEAE70E4B1A68EFF3108193
:1022C00072B61368002BFCD0BFF35F8F094B1B68FD
:1022D000BFF35F8F00221A6081F3108820BF04983B
:1022E0000599FFF769FB0028E6D0D0E7CCBD0410C4
:1022F000CD1C00108442002000B583B002000B000A
:102300006846FFF70CFD00980199FFF79DFF03B0A9
:1023100000BD10B5FA2292000023002102F0A8FBB4
:10232000FFF7EAFF10BD000030B583B005000C00D8
:10233000EFF30583002B0FD10B4A00230093FFF727
:1023400010FF00280BDD20BFFFF776FF28002100DB
:10235000FFF732FB03B030BDFFF72EFBFAE7280092
:102360002100FFF729FBF5E7CD1C001010B5002B6D
:1023700002DB0260436010BD024B034A03483F2169
:1023800000F092FDF0B50410E4DE041044B6041031
:1023900070B5EFF305801038EFF3108C72B6194B5F
:1023A0001B68002BFBD0BFF35F8F0122130083401B
:1023B00015494B6315490B60154909780C00C44059
:1023C000224213D0104A546A124A8500AA589442F5
:1023D00005D3114AAA580E4C9943217007E00A4AC6
:1023E000031D9B0099589950002200E00022BFF382
:1023F0005F8F044B002119608CF31088002A00D0F5
:10240000904770BD280100D0004005403C70054059
:10241000AA42002088420020F03D002010B50100B3
:10242000024A034B1800FEF753FF10BD1CBE0410F8
:10243000A4420020044B5B6A034A906A1900536A65
:102440009942F9D17047C04600400540084B5B6A8D
:1024500001E0074B5B6A8B42FBD301E0044B5B6AF4
:102460008B4203D1024B9B6A8342F7D37047C0462D
:1024700000400540F0B583B004000D00FFF7DAFF1F
:1024800006000F0022002B0092197B41994202D8CE
:1024900004D1904202D901225242D3176846FFF775
:1024A00065FF00980199FFF7D1FF03B0F0BD000070
:1024B00070B504000E00EFF3108572B61B4B1B685D
:1024C000002BFBD0BFF35F8F002E1CD02000FEF747
:1024D000CBFF174B83420BD019002000FEF7CCFF37
:1024E00001212000FEF7B8FF0123A340114A136029
:1024F000114BA400E650BFF35F8F0C4B00221A6013
:1025000085F3108870BD0C4BA2000021D150012230
:10251000A2400A490B7893430B7005492000FFF74E
:10252000DDF800212000FEF797FFE4E7280100D046
:102530009123001038600540F03D0020AA420020A1
:10254000F0B5DE4600B584B00400150001921E000F
:102550000293FFF76FFF03958E4202D84ED185425A
:102560004CD9EFF3108B72B6274B1B68002BFBD0B6
:10257000BFF35F8F254A17780125A540EBB23B4397
:102580001370234B5D63221D92000199D150214AA3
:10259000A100029888501B6A2B4212D11C4B1B6C65
:1025A0002B4208D00020BFF35F8F174B00221A6028
:1025B0008BF3108823E0184B184A1948C52100F006
:1025C00073FCFFF737FF8E4214D802D1039B83427E
:1025D00010D80E4B1B78BB420ED00D4B1D625D63B5
:1025E0001F222240012393400E4A1360074B1F70A5
:1025F0000120D8E70020D6E70120D4E7012004B06D
:1026000080BCBB46F0BDC046280100D0AA420020D5
:10261000004005408842002040BE0410C8DE04107F
:1026200064BE041080E200E0EFF3108C72B60B4B36
:102630001B68002BFBD0BFF35F8F01238340084A48
:10264000136208490A789A430A70BFF35F8F034BFD
:1026500000221A608CF310887047C046280100D011
:1026600000400540AA42002010B5002908D0037B95
:102670008B4205D300684B005B18033BC01810BDAC
:10268000024B034A0348682100F00EFC24BC0410EE
:102690003CDF041040BC0410F8B506000C00150027
:1026A000FFF7E2FF0700002C0DD0002D11D0AC4247
:1026B00015D029003000FFF7D7FF84703B78002B3E
:1026C00013D13D70F8BD0A4B0A4A0B486F2100F048
:1026D000EBFB0A4B074A0848702100F0E5FB084B6A
:1026E000044A0548712100F0DFFB43703D70E9E7C3
:1026F0008CBC041028DF041040BC041098BC0410EB
:10270000A4BC041070B506000D001400002914D0FC
:10271000002A14D0436880689847002806D0220019
:1027200029003000FFF7B8FF280007E02A00210049
:102730003000FFF7B1FF200000E0100070BD08007E
:10274000FCE770B505000023437301338373037BFB
:10275000C373012406E021002800FFF785FF013440
:10276000E4B24470297BA142F5D82800FFF77CFF32
:102770000023437070BD10B5017342608360FFF7A2
:10278000E0FF10BDF0B5C64600B505000C1E03D134
:10279000200080BCB846F0BDFFF766FF4678002EEB
:1027A000F6D031002800FFF75FFF477800239846F6
:1027B000437021002800FFF757FF43464370320063
:1027C00021002800FFF79EFF040039002800FFF7D2
:1027D000D9FF020021002800FFF794FF0400D7E78B
:1027E000F0B5C64600B504000D001700002927D03B
:1027F000FFF73AFF4378002B28D18378002B2BD1A9
:1028000001782000FFF7BEFF06008046002F0AD0A7
:10281000E17B002926D1A37B002B03D1E37B002B96
:1028200025D1A573E5734346002B26D1290020004E
:10283000FFF71AFF00234370300080BCB846F0BD9C
:10284000114B124A1248382100F02EFB114B0F4A4F
:102850000F483A2100F028FB0F4B0C4A0C483B2153
:1028600000F022FB2000FFF7FFFE4570D3E70B4B83
:10287000064A0748422100F017FB31002000FFF70D
:10288000F3FE00238370D1E7A4BE041014DF04100C
:10289000ACBE0410E4BE04100CBF0410E4BC041071
:1028A00070B504000A00457B2900FFF799FF6073AB
:1028B000280070BD70B506000C1E40D0437B8B42D3
:1028C00007D0FFF7D1FE05008178002906D100204E
:1028D00036E00121FFF7E4FF012031E03000FFF78F
:1028E000C3FE0178A1420DD03000FFF7BDFE417854
:1028F000A1420AD00029F7D1124B134A13486B3179
:1029000000F0D2FA6B78037001E06B78437000231B
:10291000AB706B70012221003000FFF761FF0200F5
:10292000717B814205D03000FFF7ECFE707301200F
:1029300006E0074B044A0548712100F0B5FA002073
:1029400070BDC04634BB0410FCDE0410ACBE0410E5
:1029500030BF041070B5046BE30701D4200070BDD4
:1029600002003032C0239B0113430A4A1A60456AB1
:10297000836AAD01ED18AD02062000F0BDF90649ED
:1029800001F0A2FC0100280001F09EFC0021FFF7ED
:1029900071FDE3E7010300004E0E000070B5040076
:1029A0000E001500FFF7D6FF22002C32E36A5E40CE
:1029B000354080235B0113431D60206370BD000020
:1029C00070B505000C00062000F096F9C00021004B
:1029D00001F07AFCC60908D00E4B9E4216D87F2320
:1029E0000340013334005E0800E001246C62AE62F3
:1029F000002200212800FFF7D1FF062000F07CF91B
:102A00008000A101891901F05FFC70BD0026024C15
:102A1000ECE7C046FEFF0000FFFF000010B50539DF
:102A20004901013AD2001143002B09D002220A4386
:102A3000012B07D0002111436E22FFF7AFFF10BD1D
:102A40000022F4E70421F6E7002909D00A22064B08
:102A50009C46604443425841044B4000C252704778
:102A600080225200F3E7C0460080FCBF984200205D
:102A700070B505000C00062000F03EF9061E27D0B8
:102A8000164B9D4226D08022D203154B1A60154B5F
:102A90001A60154B9B6811009943FAD10021280058
:102AA000FFF7D2FF21002800FFF78AFF060000236E
:102AB000012208212800FFF7B1FF2A002C328023D1
:102AC0009B01134310221A60084B2B630323AB6452
:102AD000300070BD80221204D7E7C046008003405A
:102AE00000E0004000F0004000C000400103000092
:102AF000F8B5DE4657464E464546E0B506000F009F
:102B000015000A9A934250D31A0E92461B02984619
:102B10000A9A00234046514601F014FC8146740095
:102B2000A419A4002F4B9C4664446368834200D2DE
:102B30006060331FDBB29B46012B3CD9C0239B0155
:102B40002343802212011A60274BB200D15800297A
:102B500007D0586901F0B8FB013043001B18033B54
:102B6000FDD26D0123685D40E0222A4080235B0195
:102B700023431A605A46012A28D980239B01234304
:102B8000802212011A604B4663604A460023404689
:102B9000514601F0D7FB144BB60098510120F0BC10
:102BA000BB46B246A946A046F8BD104B104A114894
:102BB000332100F079F9012FC0D1C0239B012343B9
:102BC00003221A60A368DB07FCD5CAE721687940B5
:102BD00003220A401A60A3680125BD401D42FAD0B5
:102BE000CBE7C04600800040103E002050BF0410DC
:102BF00048DF041064BF041030B583B00C2000F02F
:102C000011F9FEF745FB00280DD0002304E02E4A01
:102C100099002E4888500133092BF8D92A4B2C4AA9
:102C20005A6203B030BD2B4B00229A6700F002F9C4
:102C3000294B01221A60274B5B6C012BFBD1274BE0
:102C400003221A60234B9B6B012BFBD101330093B2
:102C50000433234A0121234800F054F8052300934C
:102C6000214A0121214800F04DF8214B0093002218
:102C700002210420FFF73CFF1E4D00952B0000228F
:102C800001210520FFF734FF104C0094230000229F
:102C900000210720FFF72CFF0094230000220021D1
:102CA0000820FFF725FF0A4B009323000022002194
:102CB0000920FFF71DFF00952B00002200210620B0
:102CC000FFF716FFADE7C046103E0020006CDC02A7
:102CD0001BB70000008000403CB0004030B0004016
:102CE000002F685900800240008C864700C00240D7
:102CF000001BB70040597307014B8000C058704754
:102D0000103E0020F0B5C64600B504000E001700C6
:102D10001D00374801F0D8FA8046364BFA18364B7A
:102D20009A4239D80100380001F0CEFA0200103A78
:102D300098235B009A4235D86B1E062B38D8069B29
:102D4000013B062B34D83F09474537D32D04069B5A
:102D50001B031D432368002B36DB284B9C4244D0C9
:102D600080235B01264A1360264A1360264A926834
:102D700019009143FAD12660A060221DC0239B0157
:102D8000134321221A602268002AFCDAE560082237
:102D90001A6080BCB846F0BD1C4B1D4A1D4811216D
:102DA00000F082F81C4B1A4A1A48192100F07CF8EE
:102DB0001A4B174A17481C2100F076F8184B144A92
:102DC0001448232100F070F822683F231340B342D7
:102DD000C3D1A3681B051B0D8342BED1E368EE225D
:102DE000D2021340AB42B8D1D3E780239B01B9E7AD
:102DF000001BB70080E84BD380F8A93200C0024026
:102E000000E0004000F0004000C00040A8BF0410F7
:102E100058DF041008C0041044C0041060C004103F
:102E2000ACC0041080239B000343014AD362704767
:102E300000800540064BAA2212011A602F22DA6098
:102E4000044B054A1A60024B5B68002BFBDA7047A3
:102E5000004002400060024000B0FA0000BEFDE702
:102E600003000A4A1268002A08D0084A1068C318EA
:102E7000074A9A4206D3054A13607047034A054938
:102E80001160F2E701204042F7E7C046843E00208F
:102E900000000420AC420020002070470120404286
:102EA000704710B5FFF7DAFF30B583B00D00190099
:102EB000002A0BD0074B084C019200932B00020014
:102EC000200002F0CFF80120FFF7C8FF034B1A00E3
:102ED000F1E7C046C8C00410D8C00410D8C504101B
:102EE00070B52B4B2B4A1A602B4B2C4A1A602C4B7B
:102EF0009A682A4B9343FAD12A4C01E008CC9847B0
:102F0000294B9C42FAD3FFF777FE234B274A1A60DE
:102F1000234B9B68DB43DB01FAD1254B40229A67A8
:102F20005A671A67DA66234C09E0234B234A244880
:102F30008721FFF7B9FF2000FEF722FD0834214B5F
:102F40009C4209D22368002BF5D0012BEDD1200043
:102F5000FEF723FD0834F2E71B4DA9681B4CC02285
:102F6000200001F063FEAC60EFF30583002B00D07E
:102F700000BEFEF7C7F9FEF7EDFCFFF735F8144C7D
:102F800001E008CC9847134B9C42FAD370BDC04671
:102F900000E00040BFCDFBFE00F00040FE7F3C00A3
:102FA00000C000401823002028230020FFFFFF015D
:102FB00000F001401023002008C1041064DF041059
:102FC00028C104101823002000ED00E000000020BC
:102FD00028230020502300200FB400B583B00848F8
:102FE00002F010F8049B002B07D005A901911800EE
:102FF00002F018F8034802F005F80120FFF72EFF51
:1030000068C104103CC704109A4200D2885470472B
:10301000704710B5002802D00B684968984710BD6A
:103020000100002007E083001B185B00501C0860B3
:103030001078C01830380A681378303BDBB2092B9F
:10304000F1D97047F0B5DE4657464E464546E0B5E5
:1030500083B093461F000C9B9A460D9C0E9B99468D
:103060000F9B9B0703D0B8460F00060022E0019299
:10307000A34688464E46B9460700B44207D2551CBF
:103080004B4641462020B84701342A00F5E73D0071
:103090004F465C46019B9B46B1464646B8463700C4
:1030A0002E0007E0013C551C5346185D434639008D
:1030B000B0472A00002CF5D135003E0047460F9B53
:1030C0009B0707D4100003B0F0BCBB46B246A9462C
:1030D000A046F0BDB0464E46B9462F005D46531B94
:1030E000B342EFD2541C4B4641462020B847220041
:1030F000F5E7F0B5CE46474680B585B0944698468C
:103100000C9D0D9C0EAB1B789946109A119B129E3C
:10311000B7071CD4002B0CD0F7070AD54F46002F59
:1031200002D10C37374204D0013B02E030272F5543
:103130000134944201D21F2CF8D9F70707D59C42DD
:1031400005D21F2C03D830272F550134F5E7F70699
:1031500012D5770505D4002C03D0944221D09C428F
:103160001FD00F9A102A32D00F9A022A37D01F2C64
:103170000AD830222A5501341F2C05D84A46002A85
:1031800033D02D222A5501340396029301940095E1
:1031900043466246FFF756FF05B0C0BCB946B0468D
:1031A000F0BD621E012C10D00F9F102F0BD0140009
:1031B0000F9A102AD8D1B206D6D51F2CD4D85822AF
:1031C0002A550134D3E7023CCBE71400C9E7B20625
:1031D000EED41F2CECD878222A550134C7E71F2CD7
:1031E000D2D860322A550134C1E7720703D52B22A9
:1031F0002A550134C8E73207C6D520222A550134A2
:10320000C2E7F0B5DE4657464E464546E0B593B0B8
:1032100081468A46089209931CAB10CB1B789B46CB
:103220001E9D219B9846002C03D1102342469A43B1
:1032300090468023DB0046461E4042461A4212D08A
:10324000002C22D000260EE03033D9B2771C0AAB16
:1032500099552900200001F037F8AC4216D31F2FF2
:1032600014D83E0004002900200001F02DF8CBB254
:10327000092BE9D94246920605D54121C918C9B2A0
:103280000A39C9B2E2E76121F8E72700434606930D
:10329000209B05931F9B049303955B460293019724
:1032A0000AAB0093099B089A51464846FFF721FF55
:1032B00013B0F0BCBB46B246A946A046F0BDF0B57F
:1032C000DE4657464E464546E0B597B00A900B910C
:1032D0000C929A46209B9946219F22AA13789B46DE
:1032E000249B0993259C289B98464A463A4302D141
:1032F0001032934398468022D200454615404346FB
:1033000013420AD04A463A4341D000252E00534684
:103310000D934D46099B9A461BE02E0053460D9394
:103320004D46099B9A4614E03033DAB2731C994635
:103330000EAB9A55524623002800390001F002F8DE
:10334000BC4226D819D04B461F2B1CD84E46050030
:103350000F00524623002800390000F0F3FFD3B2DB
:10336000092BE1D94246920605D54122D218D2B2A4
:103370000A3AD2B2DAE76122F8E7AA45E3D94E4623
:103380000D9B9A4608E04E460D9B9A4604E00026A7
:1033900002E04E460D9B9A4643460693279B0593B3
:1033A000269B0493099B03935B46029301960EAB05
:1033B000009353460C9A0B990A98FFF79AFE17B0A0
:1033C000F0BCBB46B246A946A046F0BDF0B5DE460D
:1033D00057464E464546E0B591B0804689460C9228
:1033E0009A461A9C1B9D22002B002000290001F008
:1033F0002CFA002800D0ECE001225242D44B2000ED
:10340000290001F01DFA002800D0E2E0012252421A
:10341000D04B2000290001F0FDF9002800D0D8E0B1
:10342000002200232000290001F0F4F9002800D038
:10343000E4E0069407958023DB001E9A1A400D9263
:103440001E9A1A4201D106231C930698079902007E
:103450000B000892099303000A00024300D1D9E04F
:10346000080D4005400DBC4EB44660440A03120BE3
:103470001E00BA4B13431F0001F0FAF9B84AB94BCA
:1034800001F081F9B84AB94B01F05EF90890099151
:103490000022B74B3000390001F051F9B54AB64B64
:1034A00001F071F902000B000898099901F04CF93C
:1034B00001F0F6F9834601F0DBF906000F00AF4A90
:1034C000AF4B01F060F90022AE4B01F03DF901F085
:1034D000E7F90890AC4AAD4B3000390001F053F9E0
:1034E00006000F00089801F0C3F9A94AA94B01F0A2
:1034F0004AF902000B003000390001F020F9060003
:103500000F0002000B0001F03EF90A900B91089B9E
:10351000A14A9446634400210022089109921B05A8
:1035200009930023089332003B003000390001F07A
:103530000BF90E900F9132003B0000208021C9054D
:1035400001F0FDF806000F000022944B0A980B9939
:1035500001F0FFF80022924B01F0F6F802000B0098
:103560000A980B9901F0F5F800228E4B01F0ECF867
:1035700002000B000A980B9901F0EBF802000B0017
:103580003000390001F0E0F802000B000E980F99AE
:1035900001F0DFF80022714B01F0D6F8089A099B80
:1035A00001F0F1F806000F0008960997069A079BAC
:1035B00001F046F900282FD001235B429C46E344EA
:1035C0000022774B3000390001F0C3F808900991D0
:1035D00022E01E9B04931D9B03931C9B029300946B
:1035E000019553460C9A4946404600F0FFF811B049
:1035F000F0BCBB46B246A946A046F0BD0021002261
:1036000006910792069480231B069C46AC446346B1
:10361000079310E700239B465B466333C62B20D8F5
:1036200004261E9B1B0528D5089A099B19001143E7
:103630000FD05D4A5D4B0698079901F0F9F8002814
:103640007AD000225A4B0698079901F0E3F8002837
:1036500072D01C9B5B4506DD5A469B1A013B1C93AE
:1036600003E00526DDE700231C938023DB001E9A80
:103670001A431E92002600239B461D9B9E4265D244
:103680009F1B02231E9A1A400A921E9A134202D0CE
:10369000002E00D000275B46002B07D0089A099B1C
:1036A0000698079901F055F806900791002200232B
:1036B0002000290001F0AEF8002800D07CE03D4B4E
:1036C0001E9A1340049303971C9B0293069B079C2E
:1036D0000093019453460C9A4946404600F086F800
:1036E000002E00D183E71E9B9B0671D54525441C07
:1036F0005346020049462800C0475A46D317D218FD
:103700005A4005230593013E0496002303930A3390
:1037100002935B46DB0F0193009253462200494619
:103720004046FFF76EFD0A9B002B00D15FE70200C9
:1037300047460C9E1D9D53E01C9B002B9DD00D9B6E
:10374000002B9AD01C9B013B1C9396E7002798E71F
:10375000FFFFEF7FFFFFEFFF01FCFFFF0000F03FE7
:10376000FB799F501344D33FB3C8608B288AC63F70
:103770000000F83F61436F63A787D23F71A37909C7
:103780004F930A400000E03F1655B5BBB16B0240B5
:10379000EF39FAFE422EE63FFF03000000002C4006
:1037A00000002440000018402D431CEBE2361A3F75
:1037B00080842E41FFF7FFFF069C079D2200290011
:1037C00080200006844661440B000692079376E74A
:1037D00065258CE7541C534649462020B8472200F3
:1037E000931BAB42F6D3100001E7C046F0B5DE46AE
:1037F00057464E464546E0B595B00690079193462C
:103800009946209F1E9A1F9B1000190001F01DF879
:10381000002831D101225242BF4B1E981F9900F05F
:10382000F9FF002837D101225242BC4B1E981F9944
:1038300001F006F800283DD10022B94B1E981F99CF
:1038400000F0FEFF002850D10022B64B1E981F99B1
:1038500000F0E0FF002848D1002200231E981F99A5
:1038600000F0D8FF002850D100239846229B5B052A
:1038700000D4B6E0002458E0229B0393219B0293DE
:1038800003230193A84B00934B465A460799069889
:10389000FFF7D8FB0EE1229B0393219B02930423A5
:1038A0000193A24B00934B465A4607990698FFF79F
:1038B000C9FBFFE00423229A1A4022990B4210D040
:1038C0009B4B002A0FD00422229903912199029147
:1038D000019200934B465A4607990698FFF7B2FBB0
:1038E000E8E0944BEDE70322EEE7229B0493219B53
:1038F000039302971E9B1F9C009301944B465A46CC
:1039000007990698FFF762FDD4E01E9A1F9B0020DE
:10391000002100F014FF1E901F9101239846A5E797
:103920000CAB30221A55013F01341F2C01D8092F4E
:10393000F6D81E981F9900F0B3FF050000F098FF1D
:1039400002000B001E981F9900F0F9FE7A4BFA0056
:103950009B181A685B680A920B9300F014FF08909A
:10396000099100F0C1FF060000F07EFF02000B008D
:103970000898099900F0E3FE0890099100226F4B26
:1039800000F05EFF00282ED00136300000F06CFF02
:1039900002000B000A980B9900F042FF002801D0AA
:1039A00001350026002F2CD1280000F061FF020015
:1039B0000B001E981F9900F0C2FE06000F000022A7
:1039C0005E4B00F027FF002846D100225B4B300001
:1039D000390000F035FF00283ED1EB073CD501351A
:1039E0003AE0062746E70022544B0898099900F070
:1039F00011FF0028D6D1002E01D0F307D2D5013611
:103A0000D0E7AA461F2C11D8013F0A21300000F050
:103A10005BFC651C30310CAB19550A21300000F0FD
:103A200053FC092E0ED906002C00EBE755461F2C3F
:103A30000CD87B1E002F09D00CAA302111551F0075
:103A40000134F4E72B0055461C00F0E71F2C03D887
:103A50000CAB2E221A5501341F2C10D80A21280035
:103A600000F00AFC661C30310CAB19550A21280005
:103A700000F002FC051E01D03400EDE73400032302
:103A8000229A1340012B1CD01F2C06D84346002B32
:103A900032D00CAB2D221A550134229B0393219B6B
:103AA000029301940CAB00934B465A460799069833
:103AB000FFF7C8FA15B0F0BCBB46B246A946A0460F
:103AC000F0BD219B002B13D04346002B02D10C33B9
:103AD00013420FD0219B013B2193190003E00CAB53
:103AE00030221A5501348C42CED21F2CF7D9CBE7A5
:103AF0002199F8E72199F6E7229B5B0704D50CABE7
:103B00002B221A550134C8E7229B1B07C5D50CABE5
:103B100020221A550134C0E7FFFFEFFFFFFFEF7FC0
:103B200065CDCD4165CDCDC184C1041088C10410DF
:103B300078C1041080C1041010E104100000E03FBF
:103B4000F0B5DE4657464E464546E0B593B0824650
:103B5000884693461193002900D10DE3002556466F
:103B6000119B1878002800D109E3252809D06C1C86
:103B70005B462A004146B047119B01331193250053
:103B8000EEE701331193002720E001231F430132A8
:103B90001192012418E002231F43013211920124E3
:103BA00012E004231F430132119201240CE0082388
:103BB0001F4301321192012406E010231F430132FA
:103BC0001192012400E00024002C09D0119A1378EE
:103BD000203BD9B21029F6D88B00C849CB589F4654
:103BE000119B1A781300303BDBB2092B10D92A2A1B
:103BF00013D00B94119B1A782E2A1ED0119A137889
:103C0000683BD9B2122959D88B00BD49CB589F4681
:103C100011A8FFF705FA0B90ECE71C9B1A1D1C92EC
:103C20001B68002B04DB0B93119B01331193E1E71D
:103C3000022217435B420B93F6E78022D200174320
:103C40005A1C11925A781300303BDBB2092B0BD966
:103C50002A2AD3D11C9B1A1D1C921C68002C08DB3D
:103C6000119B01331193C9E711A8FFF7D9F904009B
:103C7000C4E70024F4E780235B003B43511C11910F
:103C800051786C2901D01F0018E0C0239B001F430E
:103C90000232119212E080233B43511C1191517862
:103CA000682901D01F0009E0C0231F43023211928E
:103CB00004E080235B001F4301321192119B1878AE
:103CC000672818D8252800D24CE20300253BDAB239
:103CD000422A00D946E293008A4AD3589F4680235D
:103CE0009B001F4301321192E8E780235B001F43D2
:103CF00001321192E2E7782800D933E2692800D234
:103D000030E20200693AD2B2012393407E4A134264
:103D100011D11A0600D500E25B0500D422E21C9BFB
:103D20001A1D1C921B689A46002C00D0B2E1012299
:103D3000524253468EE16F280ED006D858283DD007
:103D4000622804D102239C4608E0782839D0102349
:103D50009F43063B9C4601E008239C46582833D0ED
:103D6000692803D0642801D00C2297437A0501D535
:103D70000122974369282AD0642828D0BA0500D5A3
:103D80009FE0FA0500D5C1E07A0600D4D3E01C9A82
:103D9000111D1C911168FF220A4005970B9B04938B
:103DA0000394634602930023019300925B462A002A
:103DB00041463000FFF725FA050027E010239C4616
:103DC000CCE710239C46C9E720221743C8E7BA0571
:103DD00020D4FA0550D47A0666D51C9A111D1C9180
:103DE0001168FF220A40D0171118414005970B9B1C
:103DF0000493039463460293D20F019200915B46B1
:103E00002A0041463000FFF7FCF90500119B013301
:103E10001193A5E61C9A073207218A431100083145
:103E20001C91116853689946DB170C930D930C9AFB
:103E30000D9B100048400E904A4653400F930E9839
:103E40000F990C9A0D9B801A99410E900F9108972B
:103E50000B9B0793069463460493002305934B46FC
:103E6000DA0F0292009001915B462A004146300031
:103E7000FFF725FA0500C9E71C9A111D1C9112686D
:103E8000D0171118414005970B9B04930394634688
:103E90000293D20F019200915B462A004146300006
:103EA000FFF7AFF90500B1E73A0605D51C9A111DD9
:103EB0001C910023D25E96E71C9A111D1C9112687A
:103EC00091E71C9A073207218A43110008311C919F
:103ED00008970B9B0793069463460493002305936E
:103EE000029353681268009201935B462A00414690
:103EF0003000FFF7E4F9050088E7C04674DF0410DE
:103F0000B8DF041004E00410419000001C9A111D59
:103F10001C9105970B9B0493039463460293002323
:103F20000193136800935B462A0041463000FFF777
:103F300068F905006AE73A0606D51C9A111D1C911E
:103F400012681204120C28E71C9A111D1C911268A9
:103F500023E7462819D01C9B0733072293431A00F6
:103F600008321C9204970B9A039202941A685B68B9
:103F7000009201935B462A0041463000FFF736FC71
:103F80000500119B01331193EAE520231F43E2E76B
:103F9000672801D0472802D180231B011F434528F1
:103FA00001D0472801D120231F431C9B0733072240
:103FB00093431A0008321C9204970B9A03920294BE
:103FC0001A685B68009201935B462A004146300004
:103FD000FFF7FCF90500119B01331193C0E50223A3
:103FE0001A003A4091463B421DD001241C9B1A1DE9
:103FF0001C926F1C18785B462A004146B0474B461E
:10400000002B14D1119B013311933D00A8E5571CDF
:104010005B4641462020B04723003A005C1C9D428D
:10402000F5D81500E2E701232A000B9DF6E73A00D8
:10403000B1460B9E06E0571C5B4641462020C84710
:104040002C003A00651CA642F5D817004E46D9E769
:1040500001330A001978002902D0511E002AF7D135
:1040600052469B1A8022D2003900114089461742DD
:1040700002D0A34200D9230002221100394010913E
:104080003A4209D02A00250057469A4633004E4648
:10409000994621E022004CE62A004546A04606E06B
:1040A000541C5B4629002020B0473B0022005F1CC7
:1040B0000B999942F4D84446A8463B002500574640
:1040C0009A4633004E46994606E01D000137541CBF
:1040D0005B464146C84722003878002804D0002EAD
:1040E000F4D06B1E002DF0D1150053464E46109AA9
:1040F000002A03D1119B0133119331E50B9F2A0054
:1041000006E0551C5B4641462020B04723002A00AC
:104110005C1C9F42F5D81500ECE721233B431C9A19
:10412000111D1C911268059308230493039408330E
:1041300002930023019300925B462A00414630001F
:10414000FFF75FF80500119B0133119308E56C1C24
:104150005B462A0041462520B047119B013311934D
:104160002500FDE46C1C5B462A004146B047119BCC
:10417000013311932500F3E40A4B9A46EEE4B2466C
:104180005D450DD35B465A1E5B4641460020D04735
:10419000280013B0F0BCBB46B246A946A046F0BD0D
:1041A0002A00F1E7113000100EB430B584B00100E0
:1041B00007AC08CC03940122054D0094524228001C
:1041C000FFF7BEFC04B030BC08BC03B01847C046C3
:1041D0000930001010B582B0044C009313000A009F
:1041E00001002000FFF7ACFC02B010BD0930001048
:1041F00000B585B00290039101210448009313009B
:104200004A4202A9FFF79CFC05B000BD1330001024
:1042100001480421014B1847701200204142001050
:1042200010B5010018231B8814221088984710BD70
:1042300010B5010018231B8816221088984710BD5E
:10424000F0B5C64600B507000E00002501239846CC
:1042500000E00135B5420AD2AC003C192068FFF7F6
:10426000DFFF20600028F4D100239846F1E74046A4
:1042700080BCB846F0BD0000124A936F9B0815D26F
:104280009066D166002905D0FFE7FFE7FFE7516F91
:10429000106F704704B580210906C21751400028ED
:1042A00000D0C84347F0F0F8002104BDF0B5146E0B
:1042B000556E576F166FFFF7E3FF14665566576725
:1042C0001667F0BD000000D0114A936F9B0813D20F
:1042D00010665166002905D0FFE7FFE7FFE7516F41
:1042E000106F704704B5002801D00020C04347F08C
:1042F000CBF8002104BDC046F0B5146E556E576F63
:10430000166FFFF7E5FF1466556657671667F0BD31
:10431000000000D094464A4A926F9208624601D249
:1043200028E0C046F0B5464E346E756E776F366F36
:1043300000F020F89446424A14665566576716679F
:104340006246F0BD94463E4A926F9208624601D2A0
:1043500054E0C046F0B53A4E346E756E776F366FE6
:1043600000F04CF89446364A14665566576716674F
:104370006246F0BD002B24DB11D000293EDA00B5E7
:10438000C943404200D1013100F038F8C9434042EE
:1043900000D10131DB43524200D1013300BD002A7C
:1043A000EBD1002801D1002905D00020C90FC90791
:1043B00001D1C043410800B547F03EF80022002378
:1043C00000BD00B500290ADBDB43524200D10133B6
:1043D00000F014F8C943404200D1013100BDC94387
:1043E000404200D10131DB43524200D1013300F0A1
:1043F00005F8DB43524200D1013300BD002923D12F
:10440000002B18D1002A0CD0BC460D4F38667A66B6
:1044100000210023FFE7FFE7FFE77A6F386F674669
:104420007047002801D00748010000B547F004F8A4
:104430000022002300BD02000B0000200021704775
:10444000000000D0FFFFFFFF002B00D0BFE0130CE7
:1044500028D1002AE7D080B4114F39667A66FFE789
:10446000FFE730B4040C7B6F396F1B0423433B66BA
:104470007A66FFE7FFE7FFE7C04684B27B6F3D6FD8
:104480001B0423433B667A66FFE7FFE7C046002331
:104490002C042D0C7A6F386F00196941B0BC70473D
:1044A000000000D0F0B594460025140E01D1120290
:1044B0000835140F01D112010435940F01D1920077
:1044C0000235D40F01D152000135D40B0134254FF0
:1044D0007C66254C3C660E0C93B2FFE7FFE7FFE7D6
:1044E0003C6F6643360C7703BE467343DF0B5B04B9
:1044F000C01AB941130C7343DB18C91ACE086643BE
:10450000360CB64493B273431F0F1B01C01AB94156
:10451000130C73431F0B1B05C01AB941860D8F0284
:104520003E436643360C092D24DB520A7243801A3F
:104530007703460A6643360C16235B1BDE40DF40DA
:10454000BF1964466643821B70460435063301007A
:10455000D940A840C01900D30131A24206D200239D
:10456000F0BD0000000000D0FFFFFFFF121B013074
:10457000F3D3F1E709277F1BFE406446A2B27243E2
:10458000801A00D20139220C7243130C1204821AD1
:1045900099410B007046043513370100F940A840DB
:1045A000801900D30131002B02D1A2420AD2F0BD02
:1045B000013000D30131121BFAD2013BF8D1A242E3
:1045C00000D2F0BD013000D30131121BF7E7F0B586
:1045D0001C0C00D080E00CB400251C0A04D11B0286
:1045E000160E3343120208351C0B04D11B01160FA3
:1045F0003343120104359C0B04D19B00960F3343C7
:1046000092000235DC0B02D192185B4101351C008F
:10461000971864410134464F7C66464C3C660E0C4C
:10462000FFE7FFE7FFE7C0463C6F6643360C7703C2
:10463000BE4697B27743C01B00D20139C01B00D2DF
:1046400001399FB27743C91BC91B170C77437E04FE
:10465000FF0B801BB941CE086643360C0C2D33DBB3
:10466000B644120B1F053A431B0B97B27743C01B8E
:1046700000D201399FB27743C91B170C77433E0420
:104680003F0C801BB941860D8F023E4366432927AC
:104690007F1BFE400C3D7746AF40BF1930BCA2B235
:1046A000ABB272437343801A9941220C7243130CCC
:1046B0001204801A994102000B000137001BA94126
:1046C000F9D2781E0021F0BD0C277F1BFE407746F3
:1046D0007F0BAF40FF19E0E700245D1C07D0144FAB
:1046E0007D663966FFE7FFE7FFE7FFE73C6F95B2BE
:1046F0009EB265436643401BB141150C1E0C6543D9
:10470000664336042F0C3E432D04401BB1419942B1
:1047100004D202000B0020000021F0BD01D1904224
:10472000F7D3801A994101349942F2D3F6E7000099
:10473000000000D0FFFFFFFF48404140484018B450
:10474000134B5B68019308BD18B4114B1B680193B0
:1047500008BD94460F4A926F920805D2624618B47B
:104760000B4BDB68019308BD0A4AF0B5146E556E19
:10477000576F166F6246FFF7F2FF064A14665566DA
:1047800057671667F0BD18B4014B9B68019308BDCD
:1047900080400020000000D0FFB550404240504013
:1047A00059404B40594000E0FFB5154F4C00640D97
:1047B00003D0BC4204D10C0314D80020090D090514
:1047C0005C00640D03D0BC4204D11C030AD8002253
:1047D0001B0D1B0501264B4009D44B4003D58B42D2
:1047E00000D18242FFBD9942FCD19042FFBD0B43F4
:1047F000DB1803431343F5D0C9434918FFBD00003C
:10480000FF07000000B5FFF7CFFF01D0002000BD7B
:10481000012000BD00B5FFF7C7FF804100BDC046C5
:1048200000B5FFF7C1FF01D9002000BD012000BD88
:1048300000B5FFF7B1FF01D9002000BD012000BD88
:1048400000B5FFF7A9FF804100BD012040054A00E7
:10485000121804D85A00121801D8002070470120FD
:1048600070470020704700000021002805D17047E4
:10487000C1174840401AFAD0C90713B5064B1B6848
:1048800098470CBC441CA2401005120B0349091B9D
:1048900009051943114310BD804100201F04000089
:1048A00010B54C00620D8023D218DB00D21A5B05D4
:1048B0007E2A10DD9E3A13DACC1709034908194302
:1048C0005242D140640001341532202A05DAD0402A
:1048D0000843604310BD002010BD0846604310BD72
:1048E000C80FC018013810BD18B4024B5B6A0193A1
:1048F00008BD00008040002018B4024BDB6D01931E
:1049000008BD000080400020C94211D300B5490015
:104910004908002200F014F8002904D40022404283
:104920008A41114600BD80210906002000BD00001B
:1049300018B4024BDB6E019308BD000080400020DC
:1049400018B4024B9B6F019308BD0000804000200B
:1049500018B4024BDB6F019308BD000080400020BB
:1049600010B50148FEF738FB90C1041070B5132351
:104970001C78012C12D0012C12DC214B214A9364AB
:104980002148FFF74DFC214B186070BD20491D4A9E
:104990009800815001331F2BF8D9ECE70023FAE788
:1049A0001C48FFF745FC05001B48FFF741FC023897
:1049B00003789B007F2B09DD12488022290000F03C
:1049C00035F9022C08D0022CDADCD6E7134B144A56
:1049D00014483221FEF768FA134B1A88B5231B02DC
:1049E0009A4209D1114B1A88114B9A4204D1114BAA
:1049F0001A88114B9A42E6D00020FEF7EDFAC04625
:104A00003D4A0010804000204C33000080410020CF
:104A1000614900105344000053460000A8C104102F
:104A200060E10410FCC1041054380000D8380000C4
:104A3000494600009C3800005946000007B5604612
:104A4000002800D100BE01880A0A0230DF2AFAD10C
:104A5000C9B2820804D3028840880004104300E0F1
:104A60000068024A5050039007BD000080400020BB
:104A700051434343C9188C46110C83B24B4310B4C5
:104A8000040C614392B280B2504362431C041B0C7D
:104A9000001910BC59411304120CC0185141614453
:104AA0007047000007B548404140484001E0C0461B
:104AB00007B54200120E03D0FF2A03D1420218D8D4
:104AC000C00DC0054A00120E03D0FF2A03D14A02CE
:104AD0000FD8C90DC9050122414005D4414001D577
:104AE000814207BD884207BD0143491801D0C04338
:104AF000001807BD00B5FFF7DBFF01D0002000BDA7
:104B0000012000BD00B5FFF7D3FF01D9002000BD93
:104B1000012000BD01231B064200D21804D84A0020
:104B2000D21801D8002070470120704710B5014805
:104B3000FEF752FAD8C5041070B513231E78184832
:104B4000FFF776FB0500012E11D0012E09DDAB1E0B
:104B50001B789B007F2B1DDD12488022290000F06E
:104B600065F81148FFF75CFB104B186070BD0D48ED
:104B70005422290000F05AF8002300E001331F2BD3
:104B8000E3D8084A9C00A258002AF7D10849054AF0
:104B9000A150F3E7074B084A08484221FEF784F981
:104BA00053460000844100204C3300008041002027
:104BB0002D4B001044C2041074E1041078C204109C
:104BC00010B5002804D04018034B984200D810BDFF
:104BD0000248FEF701FAC04600000420C0C20410DB
:104BE00070B5050036F0FCF804002900FFF7E8FF77
:104BF000200070BD70B50D0036F070FC0400290077
:104C0000FFF7DEFF200070BD10B536F0F3F810BDE1
:104C100001480421014B1847801200204142001036
:104C2000014B1B681847000080120020014B5B6895
:104C3000184700008012002010B5FFF7D1FF10BD0B
:104C400010B5FFF7CDFF10BD10B5FFF7DDFF10BDAC
:104C500010B5FFF7D9FF10BD10B5FFF7D5FF10BD98
:104C6000084B5B6A994209D8064A926A824207D287
:104C7000994201D0012002E0002000E000207047AE
:104C80000120FCE70040054010B5030008001100BA
:104C90001B68984710BD0000F8B507000D0016000E
:104CA000437D002B02D0002400200CE0036811009B
:104CB000280098472DE03B7D10E03B681548022115
:104CC0009847601C0134B44214DA002CF3DD2B1930
:104CD000013B1B780D3B5A425341DBB22A5D0A2A45
:104CE000F0D1002BEED1A042E7DA3B68211A281858
:104CF0009847E2E7B04203DA3B68311A2818984730
:104D0000002E06DDAD19013D2B780D3B5A42534173
:104D10003B75F8BDACE1041070B505000368002BCD
:104D200016D00C4B1C6805E0290004C92000FFF7D1
:104D3000B3FF2469002C09D02368002BF9D0064B5F
:104D40001B68002BF0D0A342F3D1EDE700232B60CA
:104D500070BDC046783E0020803E002070B5050042
:104D60000C000B68802B05D023685A1C2260E418C5
:104D7000257170BD0800FFF7CFFFF5E710B5002BD8
:104D800002DB0260436010BD024B034A03483F212F
:104D9000FEF78AF8F0B50410B0E1041044B6041030
:104DA00010B582B00400FDF745FB02000B00684619
:104DB000FFF7E4FF009A019B22606360200002B0CD
:104DC00010BD000070B582B0060014001D00FA226C
:104DD0009200002306980021FFF74AFE02000B0014
:104DE00012196B41002B09DB6846FFF7C7FF009AD9
:104DF000019B32607360300002B070BD01225242EC
:104E0000004BF1E7FFFFFF7F30B585B004000D00D8
:104E100002A8FFF7C5FF029A039B00952000FFF749
:104E2000D1FF200005B030BDF8B5CE46474680B56D
:104E300007000E00914698461BE0A368002B04D0A3
:104E4000310038009847002818DC2469002C06D06F
:104E50000C4D2D68002DF0D0A542F6D1EDE7484667
:104E60004146FFF7FDFE002806D101200021FDF795
:104E700001FB054B1C68E9E701204042C0BCB94674
:104E8000B046F8BD803E0020783E002000B583B0DB
:104E9000FA2189006846FFF7B7FF009A019B024894
:104EA00046F012FB03B000BD1023002010B50248ED
:104EB00046F0BAFA10BDC04610230020F0B5CE4629
:104EC000474680B583B006000D0090461C00FFF7F2
:104ED000DDFF81466B1C05D0002C08D0194F1A4B02
:104EE0001C6807E030003CF00DF80500F4E7174FB0
:104EF000F5E72469002C17D02368002BF9D0144B58
:104F00001B68002B01D0A342F3D12A0031002000FE
:104F1000B8474346002BECD06B46D91D0A230B70D3
:104F200001222000B847E4E74B46002B07D16B1E57
:104F30009D41E8B203B0C0BCB946B046F0BDFFF732
:104F4000B5FFF4E7894C0010783E0020994C001022
:104F5000803E002010B5030008001100002B05D191
:104F6000044B1A685B68FFF75FFF10BD01204042E9
:104F7000FBE7C046C0DE041010B5030008001400B3
:104F8000013B012B06D8002300222100FFF796FFEA
:104F9000200010BD01204042FBE701204042704745
:104FA000012040427047012040427047030000202A
:104FB00002229A4240417047094A01E010331A0028
:104FC0001368002B08D08342F8D1002907D1036968
:104FD00013600023036102E0002900D010607047D5
:104FE000783E002010B5064B1C6801E09847246904
:104FF000002C03D06368002BF8D1F8E710BDC04641
:10500000783E002070B505003BF07CFF04000023D3
:10501000012201002800FFF751FFFFF7E3FF200006
:1050200070BD000070B5A2B004000E00FFF72EFFA7
:105030000500002301930A483300220001A9FFF76D
:10504000D7F8040001A8FFF767FEFFF7CBFF002D9C
:1050500002D1200022B070BDFFF728FFF9E7C0465B
:105060005D4D00100FB400B583B004A901C90191D2
:10507000FFF7D8FF03B008BC04B0184710B500F024
:10508000FFF8012010BD000010B582B00C00144BD9
:10509000C3185A425341134A5B009B5E8B4204D0B3
:1050A0006B46DA1D1470002115E06B46DA1D0D23E6
:1050B000137000210029F3D183699B06FCD4137877
:1050C000036001310132F5E783699B06FCD4137854
:1050D0000360013101320029F6D002B010BDC04694
:1050E0000080FCBF9842002082B000226B46D91D90
:1050F00006E08369DB06FCD403680B7001320131E2
:10510000002AF6D06B46D87902B0704770B5060019
:105110000D00002405E0315D034B1868FFF7B4FF74
:105120000134AC42F7DB70BD9C420020F8B50600AC
:105130000D00002705E07C1CF719FFF7D5FF38703C
:105140002700AF4204DA0E4A10688269D206F2D50F
:105150000C4A1268002A0CD0094A12685021916347
:1051600010003430526B1839114080225201024332
:105170001160002F01D03800F8BD033FFBE7C046A7
:105180009C420020083E002010B5064B1B68002BF7
:1051900006D0054A126800219163044A10689847B6
:1051A00010BDC046083E00209C4200200C3E00205E
:1051B00070B505000E001C4B1A681C4BD3185942E1
:1051C0004B4114331C0000281ED0194B1B68002BC8
:1051D00004D0174B1D60174B1E6070BD1649200090
:1051E000FCF74AF901212000FCF736F90E4B1B6849
:1051F00050229A63190034315B6B183A1A408023AD
:105200005B010B431A60E4E7094B1B68002BE0D0FD
:105210000023936300212000FCF71EF906492000BB
:10522000FCF75CFAD5E7C0469C4200200080FCBF3A
:10523000083E00200C3E00208951001070B50D0082
:105240001C000D4B1860002A0BDA002C0EDA0A4BFA
:1052500018682900FDF70CFC08480121FFF7ACFE97
:1052600070BD02211000FBF71FFFEEE702212000B6
:10527000FBF71AFFEBE7C0469C420020901200208B
:1052800010B5064B1B78064B1B78E1210123002249
:1052900049020448FFF7D2FF10BDC04640F4051094
:1052A0003CF405100040034010B5054C200000F010
:1052B00019FA2000034A04492BF0A6F810BDC04695
:1052C000B03A0020EC11002005570010F0B5DE4682
:1052D00057464E4645460122E0B5DF4D00242800E2
:1052E000DE4B83B01A70DE4B1C3098461B686C6036
:1052F0009E68DC4BAC609B462B60EC602C616C6163
:10530000AC6101F019F9D84BD84F9A462B600123B4
:105310005B4299466B6243461B682E6238005E68AA
:105320005B461C303B607C60BC60FC603C617C6127
:10533000BC6101F001F953463B604B467B6243463A
:105340003E62CB4E5A4630001B681C30DB68326030
:1053500001937460B460F46034617461B46101F00D
:10536000EBF8019B524633624B467362C14B32608D
:105370009946180015F02CF84B4678221C67043B20
:105380009C5208329C5004329C5004329C50DC6782
:10539000B94C29002200484614321C605A6014F0AF
:1053A000ABFFB64D280015F013F82B0000227C212E
:1053B000083B5A5204315A5004315A5004315A5061
:1053C00004315A50AE4928001960143199603900EF
:1053D0002A675A6014F090FFAA4D280014F0F8FFD5
:1053E000002278212B1F5A5208315A5004315A504A
:1053F00004315A502A67AA6722003100143228006B
:105400001C602A6014F078FF9F4D280014F0E0FF24
:10541000002278212B1F5A5208315A5004315A5019
:1054200004315A501C603100143428002A67AA67DE
:105430002C6014F061FF80229449954B920199678A
:10544000944B954D1869596702431A6143462800E9
:1054500000241B681C309E68904B6C609B462B6040
:10546000AC60EC602C616C61AC6101F065F88C4B58
:105470008C4F9A462B6001235B4299466B624346F0
:105480001B682E6238005E685B461C303B607C60A7
:10549000BC60FC603C617C61BC6101F04DF853462E
:1054A0003B604B467B6243461B683E627E4EDB6838
:1054B000300098465B461C3033607460B460F46022
:1054C00034617461B46101F037F853463360434688
:1054D00033624B467362754B9846180014F078FFA0
:1054E00043467C221C675C67043B9C5404329C50FE
:1054F00004329C5004329C5004329C506C4C290065
:105500002200404614321C605A6014F04BFF694D73
:10551000280014F05DFF2B0000228021083B5A5424
:1055200004315A5004315A5004315A5004315A50FF
:105530006149280019601431996039002A676A6747
:105540005A6014F02FFF5D4D280014F041FF002237
:105550007C212B1F5A5404315A5004315A500431C3
:105560005A5004315A502A676A67220031001432B7
:1055700028001C602A6014F015FF514D280014F01B
:1055800027FF00227C212B1F5A5404315A5004312A
:105590005A5004315A5004315A501C6031001434AE
:1055A00028002A676A672C6014F0FCFE8022454BB5
:1055B000454992019967454B1869596702431A6139
:1055C000434A13680133136003B0F0BCBB46B246D4
:1055D000A946A046F0BD2D4B3E4A48465A6014F0FD
:1055E00033FF2BF061F93C4B3C4A28005A6014F021
:1055F0002BFF2BF059F9354B384A28005A6014F02C
:1056000023FF2BF051F92F4B344A28009A6014F0F5
:105610001BFF2BF049F92C4B304A40465A6014F0DE
:1056200013FF2BF041F92E4B2A4A28005A6014F040
:105630000BFF2BF039F9174B264A28005A6014F05B
:1056400003FF2BF031F9124B224A28009A6014F024
:10565000FBFE2BF029F9C046F4330020A8120020ED
:10566000D819002074150510380B0510A43300203C
:10567000CC330020E4370020B81405104036002059
:10568000C40C0510CC36002058370020E03700202D
:1056900038360020C83600206C340020B4150510C0
:1056A000780B05101C34002044340020243A0020DC
:1056B000E814051074380020F40C0510043900209B
:1056C000943900206C380020203A00200039002056
:1056D00004360020180C051090390020280C051005
:1056E00054370020064A10B513680400591C116095
:1056F000002B01D0200010BDFFF7E8FDFAE7C046FF
:1057000004360020104A10B513680400591E1160B9
:10571000022B01D0200010BD0C481FF0ABF90C4843
:105720001FF0A8F90B481FF0A5F90B481FF0D4FD96
:105730000A481FF0D1FD0A481FF0CEFDEAE72BF022
:105740003DFA2BF075FAE5E704360020E03700203B
:10575000C836002054370020203A002000390020AD
:10576000903900207047C04610B50400FFF76CFA6E
:10577000200010BD044A0B6812680360934202D0F7
:105780001A6801321A607047843500200160704742
:1057900010B5064C2068002800D010BD2000002263
:1057A00003492CF03DFC2068F7E7C0468C3500200B
:1057B000F8E1041000487047F8E10410416870B542
:1057C0000500002916D08368002B10D00024354E28
:1057D000A2005058002805D043685A1E4260012B91
:1057E00036D0AB680134A342F2D8002902D00800B9
:1057F000FFF72EFAE968002916D0AB68002B10D00D
:105800000024284EA2005058002805D043685A1E94
:105810004260012B24D0AB680134A342F2D80029A6
:1058200002D00800FFF714FA2B690024002B0DD0DA
:105830001859002802D0FFF70BFA2B690434182CF2
:10584000F6D1002B02D01800FFF702FA280070BD35
:1058500003685B68B3420BD1FFF7F6F96968C0E7EC
:1058600003685B68B34206D1FFF7EEF9E968D2E757
:1058700098476968B5E79847E968CCE72BF09EF947
:105880002BF0D6F96968ACE72BF098F92BF0D0F93A
:10589000E968C0E7013102D12BF012F9FAE72BF0E9
:1058A00003F8C046695700100A4B70B51B680568BD
:1058B00004009D4204D02B685A1E2A60012B01D09F
:1058C000200070BD2800FFF779FF2800FFF7BCF922
:1058D000F6E7C046843500200E4A0B68126870B5A2
:1058E00004000D00934202D0196801311960266846
:1058F000B24204D03268511E3160012A02D0200029
:10590000236070BD3000FFF759FF3000FFF79CF9AE
:105910002B68F4E784350020F0B54E464546DE4658
:105920005746E0B50500160083B0002A00D1EEE02E
:105930000C68002C04D1B94B1C6801341C600C604D
:105940006B68671E9A46AB68013BBB4267D2E31C9B
:105950009B46B34B9B4500D8E4E001204042FFF753
:105960006FF901238146A8685B429846002813D04E
:105970006B6822009C4681000C000023614684462F
:1059800048469146CA58C2500433A342FAD14C4605
:1059900081466046584507D2221A03328000002112
:1059A00092004844FFF73CF9EB6840460193FFF74B
:1059B00047F98046A868002813D0EB6881009C4610
:1059C00002004046884600236146A446444690466D
:1059D000CA58C2500433A342FAD1434664468046B3
:1059E0001800834507D9221A033280000021920053
:1059F0004044FFF715F95B46AB604B466B6043468E
:105A0000EB605346002B02D05046FFF721F9019B73
:105A1000002B02D00198FFF71BF96B689A46BF0074
:105A20007368574438680133B9467360002849D019
:105A30007C490F68002F40D0784B8446A846180058
:105A40000DE0002A03D10268013202602A6094420C
:105A500000D17BE08F680831002F00D199E03B68CE
:105A6000002B03D10368013303603B604D682A6853
:105A70009C42E6D1130060462A004546002B04D123
:105A800066490B6801330B601360013B9C00544472
:105A90002368002B11D0110030000EF00FFC43687A
:105AA000070001334360206843685A1E4260012B9F
:105AB00000D178E04B462760186843685A1E426060
:105AC000012B3BD04B46AA681E60002A1FD0002342
:105AD0009946554B00249846E96805E04A461A6005
